{
  "contractName": "Wallet",
  "abi": [
    {
      "inputs": [
        {
          "internalType": "address payable",
          "name": "ownerAddress",
          "type": "address"
        }
      ],
      "stateMutability": "nonpayable",
      "type": "constructor"
    },
    {
      "inputs": [],
      "name": "owner",
      "outputs": [
        {
          "internalType": "address payable",
          "name": "",
          "type": "address"
        }
      ],
      "stateMutability": "view",
      "type": "function",
      "constant": true
    },
    {
      "inputs": [],
      "name": "fund",
      "outputs": [],
      "stateMutability": "payable",
      "type": "function",
      "payable": true
    },
    {
      "inputs": [
        {
          "internalType": "address payable",
          "name": "to",
          "type": "address"
        },
        {
          "internalType": "uint256",
          "name": "amount",
          "type": "uint256"
        }
      ],
      "name": "send",
      "outputs": [],
      "stateMutability": "nonpayable",
      "type": "function"
    },
    {
      "inputs": [],
      "name": "balanceOf",
      "outputs": [
        {
          "internalType": "uint256",
          "name": "",
          "type": "uint256"
        }
      ],
      "stateMutability": "view",
      "type": "function",
      "constant": true
    }
  ],
  "bytecode": "0x608060405234801561001057600080fd5b506040516104d13803806104d1833981810160405281019061003291906100db565b806000806101000a81548173ffffffffffffffffffffffffffffffffffffffff021916908373ffffffffffffffffffffffffffffffffffffffff16021790555050610108565b600080fd5b600073ffffffffffffffffffffffffffffffffffffffff82169050919050565b60006100a88261007d565b9050919050565b6100b88161009d565b81146100c357600080fd5b50565b6000815190506100d5816100af565b92915050565b6000602082840312156100f1576100f0610078565b5b60006100ff848285016100c6565b91505092915050565b6103ba806101176000396000f3fe60806040526004361061003f5760003560e01c8063722713f7146100445780638da5cb5b1461006f578063b60d42881461009a578063d0679d34146100a4575b600080fd5b34801561005057600080fd5b506100596100cd565b60405161006691906101f3565b60405180910390f35b34801561007b57600080fd5b506100846100d5565b604051610091919061024f565b60405180910390f35b6100a26100f9565b005b3480156100b057600080fd5b506100cb60048036038101906100c691906102c7565b6100fb565b005b600047905090565b60008054906101000a900473ffffffffffffffffffffffffffffffffffffffff1681565b565b60008054906101000a900473ffffffffffffffffffffffffffffffffffffffff1673ffffffffffffffffffffffffffffffffffffffff163373ffffffffffffffffffffffffffffffffffffffff16141561019b578173ffffffffffffffffffffffffffffffffffffffff166108fc829081150290604051600060405180830381858888f19350505050158015610195573d6000803e3d6000fd5b506101d6565b6040517f08c379a00000000000000000000000000000000000000000000000000000000081526004016101cd90610364565b60405180910390fd5b5050565b6000819050919050565b6101ed816101da565b82525050565b600060208201905061020860008301846101e4565b92915050565b600073ffffffffffffffffffffffffffffffffffffffff82169050919050565b60006102398261020e565b9050919050565b6102498161022e565b82525050565b60006020820190506102646000830184610240565b92915050565b600080fd5b6102788161022e565b811461028357600080fd5b50565b6000813590506102958161026f565b92915050565b6102a4816101da565b81146102af57600080fd5b50565b6000813590506102c18161029b565b92915050565b600080604083850312156102de576102dd61026a565b5b60006102ec85828601610286565b92505060206102fd858286016102b2565b9150509250929050565b600082825260208201905092915050565b7f4f6e6c79206f776e65722063616e2073656e64206d6f6e657900000000000000600082015250565b600061034e601983610307565b915061035982610318565b602082019050919050565b6000602082019050818103600083015261037d81610341565b905091905056fea2646970667358221220086f0e8a0f4b4b8ecf732abf80aa286f1aa9a30df770214d7d5a51dfac93cf6a64736f6c634300080b0033",
  "immutableReferences": {},
  "source": "// SPDX-License-Identifier: MIT\npragma solidity >=0.4.22 <0.9.0;\n\ncontract Wallet {\n  address payable public owner;\n\n  constructor(address payable ownerAddress) {\n    owner = ownerAddress;\n  }\n\n  function fund() payable public {\n  }\n\n  function send(address payable to, uint amount) public {\n    if (msg.sender == owner) {\n      to.transfer(amount);\n      return;\n    }\n    revert(\"Only owner can send money\");\n  }\n\n  function balanceOf() view public returns(uint) {\n    return address(this).balance;\n  }\n}\n",
  "sourcePath": "/var/www/html/dapp30/ether-wallet/contracts/Wallet.sol",
  "compiler": {
    "name": "solc",
    "version": "0.8.11+commit.d7f03943.Emscripten.clang"
  },
  "schemaVersion": "3.4.4",
  "updatedAt": "2022-05-02T16:05:55.427Z",
  "networkType": "ethereum",
  "devdoc": {
    "kind": "dev",
    "methods": {},
    "version": 1
  },
  "userdoc": {
    "kind": "user",
    "methods": {},
    "version": 1
  }
}